:03000000020B31BF
:0C0B3100787FE4F6D8FD758154020B7843
:100940004C6F6164696E672E2E2E002020202000DF
:1009500020200020204D4F4E2000202054554520BF
:1009600000202057454420002020544855200020D6
:10097000204652492000202053415420002020537B
:10098000554E200020203F3F3F00202020202020E7
:100990002020202020202020202000616C61726D0A
:1009A00020636C6F636B212121002000FB6900181C
:1009B000FA880018FA880030FAD80018F9DC001814
:1009C000F9DC0030F91B0018F9DC0018FA8800186F
:1009D000FAD80018FB690018FB690018FB690030A1
:1009E000FB690018FA880018FA880030FAD8001855
:1009F000F9DC0018F9DC0030F91B0018FA8800183F
:100A0000FB690018FB690018FA880048F9DC001837
:100A1000F9DC0018F9DC0018F9DC0018F9DC001822
:100A2000FA880018FAD80030FA880018FA880018F6
:100A3000FA880018FA880018FA880018FAD80018FE
:100A4000FB690030FB690018FA880018FA8800304A
:100A5000FAD80018F9DC0018F9DC0030F91B00188E
:100A6000FA880018FB690018FB690018F91B004898
:020A7000000084
:100C33000208000002180000013000012900012A07
:100C430000012B00012C000131000124004F0000A2
:100C53000000000000000000000000000000000190
:100C63001700011100011200011300011400011506
:100C730000011600010A00010C00010D000126000D
:100C8300012700012800012D00012E00012F000182
:0B0C93000E00010B000110AA010FAAC7
:1006FC00D2AF75892153877F758DFDD28E75985039
:10070C0075B81075A890D2A912100112000E7BFFBB
:10071C007A097940121194A2859291752901752A52
:10072C0001E529C454F0252AFF1210B0E52975F013
:10073C000BA4240FF582E43400F583E582252AF519
:10074C0082E43583F583EFF0052AE52AD3940A4039
:10075C00D00529E529D3940A40C4E4F5297F3C7ED1
:10076C0000120F2F0529E529C3943240F0121250C4
:10077C00E525600302093FA28592911212DB7BFFF3
:10078C007A09794B121194753C00753D00753E3316
:10079C00753F007540007541327B007A0079341248
:1007AC000EDE7D04E4FF1211D9AB32AD33AF34123F
:1007BC000D631212E0753C00753D00753E35753FBA
:1007CC00007540007541367542007543007544371D
:1007DC007B007A007938120D02E4FD7F011211D9E9
:1007EC007BFF7A097950121194AB37AD36AF3512C5
:1007FC000DC4E53814B40700505B90081475F00371
:10080C00A4C58325F0C583730208290208310208A8
:10081C00390208410208490208510208597BFF7A43
:10082C0009795380367BFF7A09795A802E7BFF7ABF
:10083C0009796180267BFF7A097968801E7BFF7AB3
:10084C0009796F80167BFF7A097976800E7BFF7AA7
:10085C0009797D80067BFF7A0979841211947529B8
:10086C0001E52975F00BA4240FF582E43400F5831F
:10087C00E5822538F582E43583F583E064BB6003BB
:10088C00020929E52975F00BA42417F582E434003C
:10089C00F583E065346003020929E52975F00BA4A2
:1008AC002418F582E43400F583E06533706FE5328B
:1008BC00706BF52B7F5A7E00120F2F052BE52BC387
:1008CC00941440F0E4F52B7F3C7E00120F2F052B87
:1008DC00E52BC3942840F0E4F52B1212507FE87EF0
:1008EC0003121282E4F508F5091212E07BFF7A0973
:1008FC00798A1211941212DB7BFF7A09799B1211FF
:10090C0094E50945087005120BBD80F5E4F508F572
:10091C00091212DB7BFF7A09798A1211940529E5F9
:10092C0029D3940A500302086D7FE87E03121282C9
:03093C0002077C33
:01093F002295
:03002300020026B2
:10002600C0E0C0F0C083C082C0D075D000C000C0A0
:1000360001C002C003C004C005C006C00730981343
:100046007525017488252BF582E43400F583E5993E
:10005600F0052B7487252BF582E43400F583E064E4
:100066002360030206DA1212DB7BFF7A09798A1211
:1000760011941212E07BFF7A09798A1211941212F6
:10008600DB752A00E52AC3952B50147488252AF5BA
:1000960082E43400F583E0FF120F86052A80E5909E
:1000A6000088E0F517A3E0F511A3E0F512A3E0F54B
:1000B60014A3E0F51574D02511F51174D02512F5A9
:1000C6001274D02514F51474D02515F515E511C450
:1000D60054F0FFE512540F4FF513E514C454F0FF26
:1000E600E515540F4FF516E517249E70030202EB33
:1000F6001470030202F414700302033924FB700324
:1001060002061B24FC70030203D0240C60030206C3
:10011600AC752C01E52C75F00BA42419F582E4349A
:1001260000F583E0B4AA08852C2475310180070503
:100136002CE52CB40BDEE52475F00BA42417F58210
:10014600E43400F583E513F0E52475F00BA42418D8
:10015600F582E43400F583E516F0E524C454F02472
:1001660008FFAD13120FC1E524C454F02409FFADF6
:1001760016120FC1E524C454F0240AFF7DBB120FEA
:10018600C1752B057488252BF582E43400F583E0D0
:1001960064237036752C01E52475F00BA4240FF545
:1001A60082E43400F583E582252CF582E43583F577
:1001B6008374BBF0E524C454F0252CFF7DBB120FDD
:1001C600C1052CE52CD3940740CD7488252BF582E8
:1001D600E43400F583E0FF642370030206ACEF24E9
:1001E600CFB4070040030202D49001FD75F003A4CA
:1001F600C58325F0C5837302021202022D0202494D
:1002060002026402027F02029A0202B5E52475F038
:100216000BA42410F582E43400F58374BBF0E524C6
:10022600C454F0040202CEE52475F00BA42411F5A3
:1002360082E43400F58374BBF0E524C454F0240250
:100246000202CEE52475F00BA42412F582E43400F4
:10025600F58374BBF0E524C454F02403806AE524D6
:1002660075F00BA42413F582E43400F58374BBF017
:10027600E524C454F02404804FE52475F00BA4242F
:1002860014F582E43400F58374BBF0E524C454F01D
:1002960024058034E52475F00BA42415F582E43496
:1002A60000F58374BBF0E524C454F024068019E5F8
:1002B6002475F00BA42416F582E43400F58374BB90
:1002C600F0E524C454F02407FF7DBB120FC1E524DA
:1002D60075F00BA42419F582E43400F58374BBF0A1
:1002E600052B0201D07508007509010206AC7529B7
:1002F60001752A01E529C454F0252AFF7DAA120FAB
:10030600C1E52975F00BA4240FF582E43400F583CA
:10031600E582252AF582E43583F58374AAF0052A59
:10032600E52AD3940A40CD0529E529D3940A40C18C
:100336000206AC752C00E52C75F00BA42417F5828B
:10034600E43400F583E0B51318E52C75F00BA4240E
:1003560018F582E43400F583E0B51605852C248073
:1003660007052CE52CB40BCE752C01E52475F00B96
:10037600A4240FF582E43400F583E582252CF5826A
:10038600E43583F58374AAF0052CE52CB408DC75F6
:100396002C01E524C454F0252CFF7DAA120FC105BB
:1003A6002CE52CD3940740EAE52475F00BA4241918
:1003B600F582E43400F58374AAF0E524C454F024ED
:1003C6000AFF7DAA120FC10206AC752C01E52C7539
:1003D600F00BA42417F582E43400F583E0B5131876
:1003E600E52C75F00BA42418F582E43400F583E0BF
:1003F600B51605852C248007052CE52CB40BCE7587
:100406002B057488252BF582E43400F583E0642AF5
:100416006004052B80EC052BAF2B052B74882FF57C
:1004260082E43400F583E0F511AF2B052B74882F99
:10043600F582E43400F583E0F512AF2B052B7488C2
:100446002FF582E43400F583E0F514AF2B052B7409
:10045600882FF582E43400F583E0F51574D0251174
:10046600F51174D02512F51274D02514F51474D034
:100476002515F515E511C454F0FFE512540F4FF597
:1004860013E514C454F0FFE515540F4FF516E52493
:1004960075F00BA42417F582E43400F583E513F018
:1004A600E52475F00BA42418F582E43400F583E501
:1004B60016F0E524C454F02408FFAD13120FC1E56D
:1004C60024C454F02409FFAD16120FC1752C01E5A2
:1004D6002475F00BA4240FF582E43400F583E5823D
:1004E600252CF582E43583F58374AAF0052CE52CDA
:1004F600B408DC752C01E524C454F0252CFF7DAA34
:10050600120FC1052CE52CD3940740EA7488252BDD
:10051600F582E43400F583E0FF642370030206AC41
:10052600EF24CFB40700400302061690053F75F08E
:1005360003A4C58325F0C5837302055402056F0223
:10054600058B0205A60205C10205DC0205F7E524B6
:1005560075F00BA42410F582E43400F58374BBF027
:10056600E524C454F004020610E52475F00BA42417
:1005760011F582E43400F58374BBF0E524C454F02D
:100586002402020610E52475F00BA42412F582E479
:100596003400F58374BBF0E524C454F02403806A68
:1005A600E52475F00BA42413F582E43400F5837476
:1005B600BBF0E524C454F02404804FE52475F00B09
:1005C600A42414F582E43400F58374BBF0E524C456
:1005D60054F024058034E52475F00BA42415F58227
:1005E600E43400F58374BBF0E524C454F02406809B
:1005F60019E52475F00BA42416F582E43400F5837E
:1006060074BBF0E524C454F02407FF7DBB120FC170
:10061600052B02051290008DE0F50AA3E0F50CA368
:10062600E0F526A3E0F527A3E0F52DA3E0F52EA33C
:10063600E0F50E74D0250AF50A74D0250CF50C7475
:10064600D02526F52674D02527F52774D0252DF537
:100656002D74D0252EF52E74D0250EF50EE50AC480
:1006660054F0FFE50C540F4FF50DE526C454F0FF8A
:10067600E527540F4FF528E52DC454F0FFE52E5419
:100686000F4FF52FE50EC454F0FFE50E540F4FF54E
:100696000EE4FBAD16AF1312116F850D4AAB28ADF4
:1006A6002FAF0E1211451212DB7BFF7A09798A12DF
:1006B6001194752900E529D3952B501274882529A4
:1006C600F582E43400F58374AAF0052980E7752BDA
:1006D60000752500C298309902C299D007D006D07D
:1006E60005D004D003D002D001D000D0D0D082D023
:0606F60083D0F0D0E032D9
:100BBD00E53025E024ACF582E43409F583E493FEB9
:100BCD00740193FF4E605BA285E433751800F5192F
:100BDD00E509640145086008E519640145187008C8
:100BED00750800750901803A8E1A8F1B851B8AE5E1
:100BFD001AF58CD28CE53025E024AEF582E434096B
:100C0D00F583E493FE740193FF7C007D12120ACAF2
:100C1D00121269C28C7F017E0012126905300530F7
:060C2D00808EE4F5302288
:03000B00021236A8
:10123600C0E0E51B6401451A7004D2978009851B3E
:0A1246008AE51AF58CB297D0E03269
:10125000D2AF75892153877F758DFDD28E759850D9
:0912600075B81075A890D2A922FE
:10000E001211B97FD01212D07F071212D0E4FF1254
:05001E0012D0021218CF
:0612D0001211F90212994F
:0312E5001210E400
:0112E80022E3
:10116F008F478D488B491211B97FD01212D0E4FFEF
:10117F001212D0AF491212D0AF481212D0AF47128D
:05118F0012D00212184D
:101145008F478D488B491211B97FD01212D07F037A
:101155001212D0AF471212D0AF481212D0AF4912B7
:0A11650012D0AF4A1212D002121885
:100EDE008B398A3A893B1211B97FD01212D0E4FFB6
:100EEE001212D01212181211B97FD11212D0121280
:100EFE00E5AB3FAA40A941EF120AB8120003121245
:100F0E00E5AB3CAA3DA93EEF120AB812000312123D
:100F1E00E5AB39AA3AA93BEF120AB81212C802126F
:010F2E0018AA
:100D02008B398A3A893B1211B97FD01212D07F03F4
:100D12001212D01212181211B97FD11212D012125D
:100D2200E5AB39AA3AA93BEF120AB8120003121234
:100D3200E5AB3CAA3DA93EEF120AB812000312121B
:100D4200E5AB3FAA40A941EF120AB8120003121202
:100D5200E5AB42AA43A944EF120AB81212C8021222
:010D62001878
:040FC1008F478D4881
:100FC5001211B97FA0120E84120003AF47120E84CE
:100FD500120003AF48120E84120003121218E4F532
:100FE50049F54A7FE87E031212BC054AE54A7002BC
:0B0FF5000549C39464E549940040E8FE
:0110000022CD
:040E84008E4B8F4CB6
:100E8800C2817FE87E031212BCE4F54DE54C30E7E1
:100E980004D2808002C2807FE87E031212BCD28115
:100EA8007FE87E031212BCC2817FE87E031212BC67
:100EB800E54C25E0F54CE54B33F54B054DE54DC3C9
:100EC800940840C8D2807FE87E031212BCD2817F8A
:060ED800E87E030212BCDB
:0210B0008F3976
:1010B2001211B97FA07E00120E84120003AF397E96
:1010C20000120E841200031211B97FA17E00120ECB
:1010D200841200031210788F3A120003121218AF12
:0110E2003AD3
:0110E30022EA
:10107800E4F53BF53CE53B25E0F53BD2807FE87E97
:10108800031212BCC2817FE87E031212BCD2817F98
:10109800E87E031212BC308003433B01053CE53C6B
:0710A800C3940840D0AF3BE8
:0110AF00221E
:101299007F017E001212BCD2817F017E001212BC36
:0312A900C28122DD
:1011B900C281D2807F017E001212BCD2817F017E62
:1011C900001212BCC2807F017E001212BCC28122B1
:10121800C2817F017E001212BCC2807F017E001253
:0E12280012BCD2817F017E001212BCD2802245
:0211F9008F4B1A
:1011FB00E4F54CE54B339280121299E54B25E0F563
:0C120B004B054CE54CC3940840E9D28030
:0112170022B4
:1010E400E4F546D280F5457F017E001212BCD28120
:1010F4007F017E001212BCE54625E0F546A280E49D
:10110400334246C2810545E545C3940840D9AF46FC
:0111140022B8
:08000300C280121299D2802282
:0812C800D280121299D281229A
:101001007F887E131212BC7F0212103D7FE87E039F
:101011001212BC7F2812103D7FE87E031212BC7FA2
:101021000E12103D7FE87E031212BC7F0112103DAB
:0C1031007FE87E031212BC7F8002103D9D
:0512D6007F0102103D44
:0512DB007F8002103DC0
:0512E0007FC002103D7B
:1011D900C3EF648094825017EFC4333354C0448002
:0F11E900FFC3ED648094905003ED2FFF12103D73
:0111F80022D4
:10103D008F47E54754F0F5A0C282C286D2837F0167
:10104D007E001212BCC2837F0A7E001212BCE547DD
:10105D00C454F0F5A0C282C286D2837F017E0012F5
:0B106D0012BCC2837F017E00021282D1
:0D0F7900AE53AF547C00120ADCEF2430FFB1
:100F86008F4AE54A54F0F5A0D282C286D2837F0109
:100F96007E001212BCC2837F0A7E001212BCE54A92
:100FA600C454F0F5A0D282C286D2837F017E00129D
:0B0FB60012BCC2837F017E0002128289
:101194008B478A488949AB47AA48A949120A726011
:1011A400130549E5497002054814F9120A72FF1241
:0511B4000F8680E2221D
:100E25008E538F547C277D10120F7FAE53AF547CA9
:100E3500277D10120ADC8C538D54AE53AF547C03BE
:100E45007DE8120F7FAE53AF547C037DE8120ADCB8
:100E55008C538D547D64120F79AE53AF547C007D55
:100E650064120ADC8C538D547D0A120F79AE53AF90
:0F0E7500547C007D0A120ADCED2430FF020F8648
:060C9F008B4E8A4F8950C4
:100CA500E4F551AB4EAA4FA95085518275830012C8
:100CB5000A8B60487F8012103DE4F552E5522551BC
:100CC500F582E433F583AB4EAA4FA950120A8BFF88
:100CD500600C120F860552E552C3941040DE855212
:100CE50052E552C3941050097F20120F8605528099
:0C0CF500F07F967E00121282055180A74D
:010D010022CF
:100D63008F398D3A8B3BE5397804A2E713D8FB54CE
:100D73000F2430FF120F86E539540F2430FF120F72
:100D8300867F3A120F86E53A7804A2E713D8FB541C
:100D93000F2430FF120F86E53A540F2430FF120F51
:100DA300867F3A120F86E53B7804A2E713D8FB54FB
:100DB3000F2430FF120F86E53B540F2430FF020F40
:010DC30086A9
:100DC4008F398D3A8B3BE5397804A2E713D8FB546D
:100DD4000F2430FF120F86E539540F2430FF120F11
:100DE400867F2F120F86E53A7804A2E713D8FB54C6
:100DF4000F2430FF120F86E53A540F2430FF120FF0
:100E0400867F2F120F86E53B7804A2E713D8FB54A4
:100E14000F2430FF120F86E53B540F2430FF020FDE
:010E24008647
:0C12BC00EF4E6007EF1F70F81E80F52257
:10128200AD07AC06ED4C600E7F707E001212BCED15
:071292001D70F11C80EE222B
:1012AC00AB07EB600A7FE87E031212821B80F322ED
:10126900EF4E60147D9A7C02ED1D70011CED4C70EF
:08127900F7EF1F70EB1E80E887
:01128100224A
:100F2F00EE7046EF24A6601824E26024243C70394A
:100F3F00753900753A1E121115C284C374A3801E31
:100F4F00753900753A3C121115C284C3749B800E1B
:100F5F00753900753A5A121115C284C3749B953AAC
:090F6F00FF74029539FE12111BFA
:010F78002256
:06111500D284AF3AAE39AE
:10111B00E4FDFCC3ED9FEE6480F8EC6480985019FD
:10112B00758922758CFF758AD1D28C308DFDC28D5D
:09113B00C28C0DBD00010C80DA2C
:011144002288
:100B3D000206FCE493A3F8E493A34003F68001F2CC
:100B4D0008DFF48029E493A3F85407240CC8C333B9
:100B5D00C4540F4420C8834004F456800146F6DF88
:100B6D00E4800B0102040810204080900C33E47ED9
:100B7D00019360BCA3FF543F30E509541FFEE4937D
:100B8D00A360010ECF54C025E060A840B8E493A344
:100B9D00FAE493A3F8E493A3C8C582C8CAC583CA6F
:100BAD00F0A3C8C582C8CAC583CADFE9DEE780BE27
:010C9E000055
:100A7200BB010689828A83E0225002E722BBFE0282
:090A8200E32289828A83E49322B5
:100A8B00BB010CE58229F582E5833AF583E0225020
:100A9B0006E92582F8E622BBFE06E92582F8E2226A
:0D0AAB00E58229F582E5833AF583E4932284
:100AB800BB010689828A83F0225002F722BBFE011D
:020AC800F32217
:100ACA00EF8DF0A4A8F0CF8CF0A428CE8DF0A42E40
:020ADA00FE22FA
:100ADC00BC000BBE0029EF8DF084FFADF022E4CCFE
:100AEC00F875F008EF2FFFEE33FEEC33FCEE9DECC7
:100AFC00984005FCEE9DFE0FD5F0E9E4CEFD22ED0D
:100B0C00F8F5F0EE8420D21CFEADF075F008EF2F56
:100B1C00FFED33FD4007985006D5F0F222C398FD47
:050B2C000FD5F0EA22E4
:00000001FF
